{"abi":[{"type":"fallback","stateMutability":"nonpayable"},{"type":"function","name":"BecToken","inputs":[],"outputs":[],"stateMutability":"nonpayable"},{"type":"function","name":"allowance","inputs":[{"name":"_owner","type":"address"},{"name":"_spender","type":"address"}],"outputs":[{"name":"remaining","type":"uint256"}],"stateMutability":"view"},{"type":"function","name":"approve","inputs":[{"name":"_spender","type":"address"},{"name":"_value","type":"uint256"}],"outputs":[{"name":"","type":"bool"}],"stateMutability":"nonpayable"},{"type":"function","name":"balanceOf","inputs":[{"name":"_owner","type":"address"}],"outputs":[{"name":"balance","type":"uint256"}],"stateMutability":"view"},{"type":"function","name":"batchTransfer","inputs":[{"name":"_receivers","type":"address[]"},{"name":"_value","type":"uint256"}],"outputs":[{"name":"","type":"bool"}],"stateMutability":"nonpayable"},{"type":"function","name":"decimals","inputs":[],"outputs":[{"name":"","type":"uint8"}],"stateMutability":"view"},{"type":"function","name":"name","inputs":[],"outputs":[{"name":"","type":"string"}],"stateMutability":"view"},{"type":"function","name":"owner","inputs":[],"outputs":[{"name":"","type":"address"}],"stateMutability":"view"},{"type":"function","name":"pause","inputs":[],"outputs":[],"stateMutability":"nonpayable"},{"type":"function","name":"paused","inputs":[],"outputs":[{"name":"","type":"bool"}],"stateMutability":"view"},{"type":"function","name":"symbol","inputs":[],"outputs":[{"name":"","type":"string"}],"stateMutability":"view"},{"type":"function","name":"totalSupply","inputs":[],"outputs":[{"name":"","type":"uint256"}],"stateMutability":"view"},{"type":"function","name":"transfer","inputs":[{"name":"_to","type":"address"},{"name":"_value","type":"uint256"}],"outputs":[{"name":"","type":"bool"}],"stateMutability":"nonpayable"},{"type":"function","name":"transferFrom","inputs":[{"name":"_from","type":"address"},{"name":"_to","type":"address"},{"name":"_value","type":"uint256"}],"outputs":[{"name":"","type":"bool"}],"stateMutability":"nonpayable"},{"type":"function","name":"transferOwnership","inputs":[{"name":"newOwner","type":"address"}],"outputs":[],"stateMutability":"nonpayable"},{"type":"function","name":"unpause","inputs":[],"outputs":[],"stateMutability":"nonpayable"},{"type":"function","name":"version","inputs":[],"outputs":[{"name":"","type":"string"}],"stateMutability":"view"},{"type":"event","name":"Approval","inputs":[{"name":"owner","type":"address","indexed":true},{"name":"spender","type":"address","indexed":true},{"name":"value","type":"uint256","indexed":false}],"anonymous":false},{"type":"event","name":"OwnershipTransferred","inputs":[{"name":"previousOwner","type":"address","indexed":true},{"name":"newOwner","type":"address","indexed":true}],"anonymous":false},{"type":"event","name":"Pause","inputs":[],"anonymous":false},{"type":"event","name":"Transfer","inputs":[{"name":"from","type":"address","indexed":true},{"name":"to","type":"address","indexed":true},{"name":"value","type":"uint256","indexed":false}],"anonymous":false},{"type":"event","name":"Unpause","inputs":[],"anonymous":false}],"bytecode":{"object":"0x606060409081526003805460a060020a60ff02191690558051908101604052600b81527f426561757479436861696e0000000000000000000000000000000000000000006020820152600490805161005b92916020019061011b565b5060408051908101604052600381527f4245430000000000000000000000000000000000000000000000000000000000602082015260059080516100a392916020019061011b565b5060408051908101604052600581527f312e302e30000000000000000000000000000000000000000000000000000000602082015260069080516100eb92916020019061011b565b506007805460ff1916601217905560038054600160a060020a033316600160a060020a03199091161790556101b6565b828054600181600116156101000203166002900490600052602060002090601f016020900481019282601f1061015c57805160ff1916838001178555610189565b82800160010185558215610189579182015b8281111561018957825182559160200191906001019061016e565b50610195929150610199565b5090565b6101b391905b80821115610195576000815560010161019f565b90565b610cfb806101c56000396000f3006060604052600436106100f05763ffffffff7c010000000000000000000000000000000000000000000000000000000060003504166306fdde038114610100578063095ea7b31461018a57806318160ddd146101c057806323b872dd146101e55780632c24ecc71461020d578063313ce567146102225780633f4ba83a1461024b57806354fd4d501461025e5780635c975abb1461027157806370a082311461028457806383f12fec146102a35780638456cb59146102f45780638da5cb5b1461030757806395d89b4114610336578063a9059cbb14610349578063dd62ed3e1461036b578063f2fde38b14610390575b34156100fb57600080fd5b600080fd5b341561010b57600080fd5b6101136103af565b60405160208082528190810183818151815260200191508051906020019080838360005b8381101561014f578082015183820152602001610137565b50505050905090810190601f16801561017c5780820380516001836020036101000a031916815260200191505b509250505060405180910390f35b341561019557600080fd5b6101ac600160a060020a036004351660243561044d565b604051901515815260200160405180910390f35b34156101cb57600080fd5b6101d3610478565b60405190815260200160405180910390f35b34156101f057600080fd5b6101ac600160a060020a036004358116906024351660443561047e565b341561021857600080fd5b6102206104ab565b005b341561022d57600080fd5b6102356104d8565b60405160ff909116815260200160405180910390f35b341561025657600080fd5b6102206104e1565b341561026957600080fd5b610113610560565b341561027c57600080fd5b6101ac6105cb565b341561028f57600080fd5b6101d3600160a060020a03600435166105db565b34156102ae57600080fd5b6101ac600460248135818101908301358060208181020160405190810160405280939291908181526020018383602002808284375094965050933593506105f692505050565b34156102ff57600080fd5b6102206107c1565b341561031257600080fd5b61031a610845565b604051600160a060020a03909116815260200160405180910390f35b341561034157600080fd5b610113610854565b341561035457600080fd5b6101ac600160a060020a03600435166024356108bf565b341561037657600080fd5b6101d3600160a060020a03600435811690602435166108e3565b341561039b57600080fd5b610220600160a060020a036004351661090e565b60048054600181600116156101000203166002900480601f0160208091040260200160405190810160405280929190818152602001828054600181600116156101000203166002900480156104455780601f1061041a57610100808354040283529160200191610445565b820191906000526020600020905b81548152906001019060200180831161042857829003601f168201915b505050505081565b60035460009060a060020a900460ff161561046757600080fd5b61047183836109a9565b9392505050565b60005481565b60035460009060a060020a900460ff161561049857600080fd5b6104a3848484610a15565b949350505050565b60075460ff16600a0a6401a13b860002600081815533600160a060020a0316815260016020526040902055565b60075460ff1681565b60035433600160a060020a039081169116146104fc57600080fd5b60035460a060020a900460ff16151561051457600080fd5b6003805474ff0000000000000000000000000000000000000000191690557f7805862f689e2f13df9f062ff482ad3ad112aca9e0847911ed832e158c525b3360405160405180910390a1565b60068054600181600116156101000203166002900480601f0160208091040260200160405190810160405280929190818152602001828054600181600116156101000203166002900480156104455780601f1061041a57610100808354040283529160200191610445565b60035460a060020a900460ff1681565b600160a060020a031660009081526001602052604090205490565b60035460009081908190819060a060020a900460ff161561061657600080fd5b855192508483029150600083118015610630575060148311155b151561063b57600080fd5b6000851180156106645750600160a060020a033316600090815260016020526040902054829010155b151561066f57600080fd5b8260001981151561067c57fe5b0485111561068957600080fd5b600160a060020a0333166000908152600160205260409020546106b2908363ffffffff610ba516565b600160a060020a03331660009081526001602052604081209190915590505b828110156107b55761071d85600160008985815181106106ed57fe5b90602001906020020151600160a060020a031681526020810191909152604001600020549063ffffffff610bb716565b6001600088848151811061072d57fe5b90602001906020020151600160a060020a0316815260208101919091526040016000205585818151811061075d57fe5b90602001906020020151600160a060020a031633600160a060020a03167fddf252ad1be2c89b69c2b068fc378daa952ba7f163c4a11628f55a4df523b3ef8760405190815260200160405180910390a36001016106d1565b50600195945050505050565b60035433600160a060020a039081169116146107dc57600080fd5b60035460a060020a900460ff16156107f357600080fd5b6003805474ff0000000000000000000000000000000000000000191660a060020a1790557f6985a02210a168e66602d3235cb6db0e70f92b3ba4d376a33c0f3d9434bff62560405160405180910390a1565b600354600160a060020a031681565b60058054600181600116156101000203166002900480601f0160208091040260200160405190810160405280929190818152602001828054600181600116156101000203166002900480156104455780601f1061041a57610100808354040283529160200191610445565b60035460009060a060020a900460ff16156108d957600080fd5b6104718383610bc6565b600160a060020a03918216600090815260026020908152604080832093909416825291909152205490565b60035433600160a060020a0390811691161461092957600080fd5b600160a060020a038116151561093e57600080fd5b600354600160a060020a0380831691167f8be0079c531659141344cd1fd0a4f28419497f9722a3daafe3b4186f6b6457e060405160405180910390a36003805473ffffffffffffffffffffffffffffffffffffffff1916600160a060020a0392909216919091179055565b600160a060020a03338116600081815260026020908152604080832094871680845294909152808220859055909291907f8c5be1e5ebec7d5bd14f71427d1e84f3dd0314c0f7b2291e5b200ac8c7c3b9259085905190815260200160405180910390a350600192915050565b6000600160a060020a0383161515610a2c57600080fd5b600082118015610a545750600160a060020a0384166000908152600160205260409020548211155b1515610a5f57600080fd5b600160a060020a0380851660009081526002602090815260408083203390941683529290522054821115610a9257600080fd5b600160a060020a038416600090815260016020526040902054610abb908363ffffffff610ba516565b600160a060020a038086166000908152600160205260408082209390935590851681522054610af0908363ffffffff610bb716565b600160a060020a03808516600090815260016020908152604080832094909455878316825260028152838220339093168252919091522054610b38908363ffffffff610ba516565b600160a060020a03808616600081815260026020908152604080832033861684529091529081902093909355908516917fddf252ad1be2c89b69c2b068fc378daa952ba7f163c4a11628f55a4df523b3ef9085905190815260200160405180910390a35060019392505050565b600082821115610bb157fe5b50900390565b60008282018381101561047157fe5b6000600160a060020a0383161515610bdd57600080fd5b600082118015610c055750600160a060020a0333166000908152600160205260409020548211155b1515610c1057600080fd5b600160a060020a033316600090815260016020526040902054610c39908363ffffffff610ba516565b600160a060020a033381166000908152600160205260408082209390935590851681522054610c6e908363ffffffff610bb716565b600160a060020a0380851660008181526001602052604090819020939093559133909116907fddf252ad1be2c89b69c2b068fc378daa952ba7f163c4a11628f55a4df523b3ef9085905190815260200160405180910390a3506001929150505600a165627a7a72305820f44b371e6a0080f61a23b578dfd358e2d2ff02a05926ba4eeb2d4c3c44e950580029","linkReferences":{}},"methodIdentifiers":{"BecToken()":"2c24ecc7","allowance(address,address)":"dd62ed3e","approve(address,uint256)":"095ea7b3","balanceOf(address)":"70a08231","batchTransfer(address[],uint256)":"83f12fec","decimals()":"313ce567","name()":"06fdde03","owner()":"8da5cb5b","pause()":"8456cb59","paused()":"5c975abb","symbol()":"95d89b41","totalSupply()":"18160ddd","transfer(address,uint256)":"a9059cbb","transferFrom(address,address,uint256)":"23b872dd","transferOwnership(address)":"f2fde38b","unpause()":"3f4ba83a","version()":"54fd4d50"},"id":0}