{"abi":[{"type":"function","name":"allowance","inputs":[{"name":"_owner","type":"address"},{"name":"_spender","type":"address"}],"outputs":[{"name":"remaining","type":"uint256"}],"stateMutability":"view"},{"type":"function","name":"approve","inputs":[{"name":"_spender","type":"address"},{"name":"_value","type":"uint256"}],"outputs":[{"name":"","type":"bool"}],"stateMutability":"nonpayable"},{"type":"function","name":"balanceOf","inputs":[{"name":"_owner","type":"address"}],"outputs":[{"name":"balance","type":"uint256"}],"stateMutability":"view"},{"type":"function","name":"batchTransfer","inputs":[{"name":"_receivers","type":"address[]"},{"name":"_value","type":"uint256"}],"outputs":[{"name":"","type":"bool"}],"stateMutability":"nonpayable"},{"type":"function","name":"owner","inputs":[],"outputs":[{"name":"","type":"address"}],"stateMutability":"view"},{"type":"function","name":"pause","inputs":[],"outputs":[],"stateMutability":"nonpayable"},{"type":"function","name":"paused","inputs":[],"outputs":[{"name":"","type":"bool"}],"stateMutability":"view"},{"type":"function","name":"totalSupply","inputs":[],"outputs":[{"name":"","type":"uint256"}],"stateMutability":"view"},{"type":"function","name":"transfer","inputs":[{"name":"_to","type":"address"},{"name":"_value","type":"uint256"}],"outputs":[{"name":"","type":"bool"}],"stateMutability":"nonpayable"},{"type":"function","name":"transferFrom","inputs":[{"name":"_from","type":"address"},{"name":"_to","type":"address"},{"name":"_value","type":"uint256"}],"outputs":[{"name":"","type":"bool"}],"stateMutability":"nonpayable"},{"type":"function","name":"transferOwnership","inputs":[{"name":"newOwner","type":"address"}],"outputs":[],"stateMutability":"nonpayable"},{"type":"function","name":"unpause","inputs":[],"outputs":[],"stateMutability":"nonpayable"},{"type":"event","name":"Approval","inputs":[{"name":"owner","type":"address","indexed":true},{"name":"spender","type":"address","indexed":true},{"name":"value","type":"uint256","indexed":false}],"anonymous":false},{"type":"event","name":"OwnershipTransferred","inputs":[{"name":"previousOwner","type":"address","indexed":true},{"name":"newOwner","type":"address","indexed":true}],"anonymous":false},{"type":"event","name":"Pause","inputs":[],"anonymous":false},{"type":"event","name":"Transfer","inputs":[{"name":"from","type":"address","indexed":true},{"name":"to","type":"address","indexed":true},{"name":"value","type":"uint256","indexed":false}],"anonymous":false},{"type":"event","name":"Unpause","inputs":[],"anonymous":false}],"bytecode":{"object":"0x606060405260038054600160a860020a03191633600160a060020a0316179055610a238061002e6000396000f3006060604052600436106100b95763ffffffff7c0100000000000000000000000000000000000000000000000000000000600035041663095ea7b381146100be57806318160ddd146100f457806323b872dd146101195780633f4ba83a146101415780635c975abb1461015657806370a082311461016957806383f12fec146101885780638456cb59146101d95780638da5cb5b146101ec578063a9059cbb1461021b578063dd62ed3e1461023d578063f2fde38b14610262575b600080fd5b34156100c957600080fd5b6100e0600160a060020a0360043516602435610281565b604051901515815260200160405180910390f35b34156100ff57600080fd5b6101076102ac565b60405190815260200160405180910390f35b341561012457600080fd5b6100e0600160a060020a03600435811690602435166044356102b2565b341561014c57600080fd5b6101546102df565b005b341561016157600080fd5b6100e061035e565b341561017457600080fd5b610107600160a060020a036004351661036e565b341561019357600080fd5b6100e06004602481358181019083013580602081810201604051908101604052809392919081815260200183836020028082843750949650509335935061038992505050565b34156101e457600080fd5b610154610554565b34156101f757600080fd5b6101ff6105d8565b604051600160a060020a03909116815260200160405180910390f35b341561022657600080fd5b6100e0600160a060020a03600435166024356105e7565b341561024857600080fd5b610107600160a060020a036004358116906024351661060b565b341561026d57600080fd5b610154600160a060020a0360043516610636565b60035460009060a060020a900460ff161561029b57600080fd5b6102a583836106d1565b9392505050565b60005481565b60035460009060a060020a900460ff16156102cc57600080fd5b6102d784848461073d565b949350505050565b60035433600160a060020a039081169116146102fa57600080fd5b60035460a060020a900460ff16151561031257600080fd5b6003805474ff0000000000000000000000000000000000000000191690557f7805862f689e2f13df9f062ff482ad3ad112aca9e0847911ed832e158c525b3360405160405180910390a1565b60035460a060020a900460ff1681565b600160a060020a031660009081526001602052604090205490565b60035460009081908190819060a060020a900460ff16156103a957600080fd5b8551925084830291506000831180156103c3575060148311155b15156103ce57600080fd5b6000851180156103f75750600160a060020a033316600090815260016020526040902054829010155b151561040257600080fd5b8260001981151561040f57fe5b0485111561041c57600080fd5b600160a060020a033316600090815260016020526040902054610445908363ffffffff6108cd16565b600160a060020a03331660009081526001602052604081209190915590505b82811015610548576104b0856001600089858151811061048057fe5b90602001906020020151600160a060020a031681526020810191909152604001600020549063ffffffff6108df16565b600160008884815181106104c057fe5b90602001906020020151600160a060020a031681526020810191909152604001600020558581815181106104f057fe5b90602001906020020151600160a060020a031633600160a060020a03167fddf252ad1be2c89b69c2b068fc378daa952ba7f163c4a11628f55a4df523b3ef8760405190815260200160405180910390a3600101610464565b50600195945050505050565b60035433600160a060020a0390811691161461056f57600080fd5b60035460a060020a900460ff161561058657600080fd5b6003805474ff0000000000000000000000000000000000000000191660a060020a1790557f6985a02210a168e66602d3235cb6db0e70f92b3ba4d376a33c0f3d9434bff62560405160405180910390a1565b600354600160a060020a031681565b60035460009060a060020a900460ff161561060157600080fd5b6102a583836108ee565b600160a060020a03918216600090815260026020908152604080832093909416825291909152205490565b60035433600160a060020a0390811691161461065157600080fd5b600160a060020a038116151561066657600080fd5b600354600160a060020a0380831691167f8be0079c531659141344cd1fd0a4f28419497f9722a3daafe3b4186f6b6457e060405160405180910390a36003805473ffffffffffffffffffffffffffffffffffffffff1916600160a060020a0392909216919091179055565b600160a060020a03338116600081815260026020908152604080832094871680845294909152808220859055909291907f8c5be1e5ebec7d5bd14f71427d1e84f3dd0314c0f7b2291e5b200ac8c7c3b9259085905190815260200160405180910390a350600192915050565b6000600160a060020a038316151561075457600080fd5b60008211801561077c5750600160a060020a0384166000908152600160205260409020548211155b151561078757600080fd5b600160a060020a03808516600090815260026020908152604080832033909416835292905220548211156107ba57600080fd5b600160a060020a0384166000908152600160205260409020546107e3908363ffffffff6108cd16565b600160a060020a038086166000908152600160205260408082209390935590851681522054610818908363ffffffff6108df16565b600160a060020a03808516600090815260016020908152604080832094909455878316825260028152838220339093168252919091522054610860908363ffffffff6108cd16565b600160a060020a03808616600081815260026020908152604080832033861684529091529081902093909355908516917fddf252ad1be2c89b69c2b068fc378daa952ba7f163c4a11628f55a4df523b3ef9085905190815260200160405180910390a35060019392505050565b6000828211156108d957fe5b50900390565b6000828201838110156102a557fe5b6000600160a060020a038316151561090557600080fd5b60008211801561092d5750600160a060020a0333166000908152600160205260409020548211155b151561093857600080fd5b600160a060020a033316600090815260016020526040902054610961908363ffffffff6108cd16565b600160a060020a033381166000908152600160205260408082209390935590851681522054610996908363ffffffff6108df16565b600160a060020a0380851660008181526001602052604090819020939093559133909116907fddf252ad1be2c89b69c2b068fc378daa952ba7f163c4a11628f55a4df523b3ef9085905190815260200160405180910390a3506001929150505600a165627a7a7230582054286479a15e52f60f45b5a373b18e8917da1cee0c60aee95847457faad775a10029","linkReferences":{}},"methodIdentifiers":{"allowance(address,address)":"dd62ed3e","approve(address,uint256)":"095ea7b3","balanceOf(address)":"70a08231","batchTransfer(address[],uint256)":"83f12fec","owner()":"8da5cb5b","pause()":"8456cb59","paused()":"5c975abb","totalSupply()":"18160ddd","transfer(address,uint256)":"a9059cbb","transferFrom(address,address,uint256)":"23b872dd","transferOwnership(address)":"f2fde38b","unpause()":"3f4ba83a"},"id":0}