{"abi":[{"type":"function","name":"owner","inputs":[],"outputs":[{"name":"","type":"address"}],"stateMutability":"view"},{"type":"function","name":"pause","inputs":[],"outputs":[],"stateMutability":"nonpayable"},{"type":"function","name":"paused","inputs":[],"outputs":[{"name":"","type":"bool"}],"stateMutability":"view"},{"type":"function","name":"transferOwnership","inputs":[{"name":"newOwner","type":"address"}],"outputs":[],"stateMutability":"nonpayable"},{"type":"function","name":"unpause","inputs":[],"outputs":[],"stateMutability":"nonpayable"},{"type":"event","name":"OwnershipTransferred","inputs":[{"name":"previousOwner","type":"address","indexed":true},{"name":"newOwner","type":"address","indexed":true}],"anonymous":false},{"type":"event","name":"Pause","inputs":[],"anonymous":false},{"type":"event","name":"Unpause","inputs":[],"anonymous":false}],"bytecode":{"object":"0x606060405260008054600160a060020a033316600160a860020a03199091161790556102f7806100306000396000f30060606040526004361061006c5763ffffffff7c01000000000000000000000000000000000000000000000000000000006000350416633f4ba83a81146100715780635c975abb146100865780638456cb59146100ad5780638da5cb5b146100c0578063f2fde38b146100ef575b600080fd5b341561007c57600080fd5b61008461010e565b005b341561009157600080fd5b61009961018d565b604051901515815260200160405180910390f35b34156100b857600080fd5b61008461019d565b34156100cb57600080fd5b6100d3610221565b604051600160a060020a03909116815260200160405180910390f35b34156100fa57600080fd5b610084600160a060020a0360043516610230565b60005433600160a060020a0390811691161461012957600080fd5b60005460a060020a900460ff16151561014157600080fd5b6000805474ff0000000000000000000000000000000000000000191690557f7805862f689e2f13df9f062ff482ad3ad112aca9e0847911ed832e158c525b3360405160405180910390a1565b60005460a060020a900460ff1681565b60005433600160a060020a039081169116146101b857600080fd5b60005460a060020a900460ff16156101cf57600080fd5b6000805474ff0000000000000000000000000000000000000000191660a060020a1790557f6985a02210a168e66602d3235cb6db0e70f92b3ba4d376a33c0f3d9434bff62560405160405180910390a1565b600054600160a060020a031681565b60005433600160a060020a0390811691161461024b57600080fd5b600160a060020a038116151561026057600080fd5b600054600160a060020a0380831691167f8be0079c531659141344cd1fd0a4f28419497f9722a3daafe3b4186f6b6457e060405160405180910390a36000805473ffffffffffffffffffffffffffffffffffffffff1916600160a060020a03929092169190911790555600a165627a7a723058202c45d455da5ef257f40c0ad001ed038a681f2d5ecc3d2d7c443172aec49e582c0029","linkReferences":{}},"methodIdentifiers":{"owner()":"8da5cb5b","pause()":"8456cb59","paused()":"5c975abb","transferOwnership(address)":"f2fde38b","unpause()":"3f4ba83a"},"id":0}